{
  "contractName": "RewardContract",
  "abi": [
    {
      "inputs": [],
      "stateMutability": "nonpayable",
      "type": "constructor"
    },
    {
      "anonymous": false,
      "inputs": [
        {
          "indexed": false,
          "internalType": "address",
          "name": "caller",
          "type": "address"
        }
      ],
      "name": "OwnerOnly",
      "type": "event"
    },
    {
      "anonymous": false,
      "inputs": [
        {
          "indexed": true,
          "internalType": "address",
          "name": "client",
          "type": "address"
        },
        {
          "indexed": false,
          "internalType": "uint256",
          "name": "amount",
          "type": "uint256"
        }
      ],
      "name": "RewardSent",
      "type": "event"
    },
    {
      "inputs": [],
      "name": "owner",
      "outputs": [
        {
          "internalType": "address",
          "name": "",
          "type": "address"
        }
      ],
      "stateMutability": "view",
      "type": "function",
      "constant": true
    },
    {
      "stateMutability": "payable",
      "type": "receive",
      "payable": true
    },
    {
      "inputs": [
        {
          "internalType": "address payable",
          "name": "client",
          "type": "address"
        },
        {
          "internalType": "uint256",
          "name": "amount",
          "type": "uint256"
        }
      ],
      "name": "rewardClient",
      "outputs": [],
      "stateMutability": "nonpayable",
      "type": "function"
    }
  ],
  "bytecode": "0x608060405234801561001057600080fd5b50336000806101000a81548173ffffffffffffffffffffffffffffffffffffffff021916908373ffffffffffffffffffffffffffffffffffffffff160217905550610427806100606000396000f3fe60806040526004361061002d5760003560e01c80638da5cb5b14610039578063b1234f4e1461006457610034565b3661003457005b600080fd5b34801561004557600080fd5b5061004e61008d565b60405161005b9190610250565b60405180910390f35b34801561007057600080fd5b5061008b600480360381019061008691906102e4565b6100b1565b005b60008054906101000a900473ffffffffffffffffffffffffffffffffffffffff1681565b60008054906101000a900473ffffffffffffffffffffffffffffffffffffffff1673ffffffffffffffffffffffffffffffffffffffff163373ffffffffffffffffffffffffffffffffffffffff1614610176577f7c5e3f84632f0d795d844a543791d57236a6c648158bd25da176134c0cfdceec336040516101339190610250565b60405180910390a16040517f08c379a000000000000000000000000000000000000000000000000000000000815260040161016d906103a7565b60405180910390fd5b8173ffffffffffffffffffffffffffffffffffffffff166108fc829081150290604051600060405180830381858888f193505050501580156101bc573d6000803e3d6000fd5b508173ffffffffffffffffffffffffffffffffffffffff167f6177f4110771217c72937d51f3a73915f2c714a6b98507e17eea7a186136a24a8260405161020391906103d6565b60405180910390a25050565b600073ffffffffffffffffffffffffffffffffffffffff82169050919050565b600061023a8261020f565b9050919050565b61024a8161022f565b82525050565b60006020820190506102656000830184610241565b92915050565b600080fd5b600061027b8261020f565b9050919050565b61028b81610270565b811461029657600080fd5b50565b6000813590506102a881610282565b92915050565b6000819050919050565b6102c1816102ae565b81146102cc57600080fd5b50565b6000813590506102de816102b8565b92915050565b600080604083850312156102fb576102fa61026b565b5b600061030985828601610299565b925050602061031a858286016102cf565b9150509250929050565b600082825260208201905092915050565b7f4f6e6c7920746865206f776e65722063616e2072657761726420636c69656e7460008201527f7300000000000000000000000000000000000000000000000000000000000000602082015250565b6000610391602183610324565b915061039c82610335565b604082019050919050565b600060208201905081810360008301526103c081610384565b9050919050565b6103d0816102ae565b82525050565b60006020820190506103eb60008301846103c7565b9291505056fea26469706673582212204292cbfd2d068848bb612ec39a8860f06d5c08da891bdf4a4a40d90587a071b764736f6c63430008130033",
  "immutableReferences": {},
  "source": "pragma solidity ^0.8.0;\r\n\r\ncontract RewardContract {\r\n    address public owner;\r\n\r\n    event RewardSent(address indexed client, uint256 amount);\r\n    event OwnerOnly(address caller);\r\n\r\n    constructor() {\r\n        owner = msg.sender;\r\n    }\r\n\r\n    function rewardClient(address payable client, uint256 amount) public {\r\n        if (msg.sender != owner) {\r\n            emit OwnerOnly(msg.sender);\r\n            revert(\"Only the owner can reward clients\");\r\n        }\r\n        client.transfer(amount);\r\n        emit RewardSent(client, amount);\r\n    }\r\n\r\n    // Fallback function to receive Ether\r\n    receive() external payable {}\r\n}\r\n",
  "sourcePath": "E:\\quickstart-tensorflow\\contracts\\RewardContract.sol",
  "compiler": {
    "name": "solc",
    "version": "0.8.19+commit.7dd6d404.Emscripten.clang"
  },
  "schemaVersion": "3.4.16",
  "updatedAt": "2024-06-13T05:04:42.894Z",
  "networkType": "ethereum",
  "devdoc": {
    "kind": "dev",
    "methods": {},
    "version": 1
  },
  "userdoc": {
    "kind": "user",
    "methods": {},
    "version": 1
  }
}